{
  "_format": "hh-sol-artifact-1",
  "contractName": "FlashLoan",
  "sourceName": "contracts/FlashLoan.sol",
  "abi": [
    {
      "inputs": [
        {
          "internalType": "address",
          "name": "_addressProvider",
          "type": "address"
        }
      ],
      "stateMutability": "nonpayable",
      "type": "constructor"
    },
    {
      "inputs": [],
      "name": "ADDRESSES_PROVIDER",
      "outputs": [
        {
          "internalType": "contract IPoolAddressesProvider",
          "name": "",
          "type": "address"
        }
      ],
      "stateMutability": "view",
      "type": "function"
    },
    {
      "inputs": [],
      "name": "POOL",
      "outputs": [
        {
          "internalType": "contract IPool",
          "name": "",
          "type": "address"
        }
      ],
      "stateMutability": "view",
      "type": "function"
    },
    {
      "inputs": [
        {
          "internalType": "address",
          "name": "asset",
          "type": "address"
        },
        {
          "internalType": "uint256",
          "name": "amount",
          "type": "uint256"
        },
        {
          "internalType": "uint256",
          "name": "premium",
          "type": "uint256"
        },
        {
          "internalType": "address",
          "name": "initiator",
          "type": "address"
        },
        {
          "internalType": "bytes",
          "name": "params",
          "type": "bytes"
        }
      ],
      "name": "executeOperation",
      "outputs": [
        {
          "internalType": "bool",
          "name": "",
          "type": "bool"
        }
      ],
      "stateMutability": "nonpayable",
      "type": "function"
    },
    {
      "inputs": [
        {
          "internalType": "address",
          "name": "_token",
          "type": "address"
        },
        {
          "internalType": "uint256",
          "name": "_amount",
          "type": "uint256"
        }
      ],
      "name": "requestFlashLoan",
      "outputs": [],
      "stateMutability": "nonpayable",
      "type": "function"
    },
    {
      "inputs": [
        {
          "internalType": "address",
          "name": "tokenAddress",
          "type": "address"
        }
      ],
      "name": "withdraw",
      "outputs": [],
      "stateMutability": "nonpayable",
      "type": "function"
    }
  ],
  "bytecode": "0x60c060405234801561001057600080fd5b50604051610d38380380610d38833981810160405281019061003291906101b3565b808073ffffffffffffffffffffffffffffffffffffffff1660808173ffffffffffffffffffffffffffffffffffffffff16815250508073ffffffffffffffffffffffffffffffffffffffff1663026b1d5f6040518163ffffffff1660e01b8152600401602060405180830381865afa1580156100b2573d6000803e3d6000fd5b505050506040513d601f19601f820116820180604052508101906100d691906101b3565b73ffffffffffffffffffffffffffffffffffffffff1660a08173ffffffffffffffffffffffffffffffffffffffff168152505050336000806101000a81548173ffffffffffffffffffffffffffffffffffffffff021916908373ffffffffffffffffffffffffffffffffffffffff160217905550506101e0565b600080fd5b600073ffffffffffffffffffffffffffffffffffffffff82169050919050565b600061018082610155565b9050919050565b61019081610175565b811461019b57600080fd5b50565b6000815190506101ad81610187565b92915050565b6000602082840312156101c9576101c8610150565b5b60006101d78482850161019e565b91505092915050565b60805160a051610b25610213600039600081816101e6015281816104070152610450015260006101020152610b256000f3fe608060405234801561001057600080fd5b50600436106100575760003560e01c80630542975c1461005c5780631b11d0ff1461007a57806351cff8d9146100aa5780637535d246146100c6578063d54ba954146100e4575b600080fd5b610064610100565b6040516100719190610569565b60405180910390f35b610094600480360381019061008f9190610667565b610124565b6040516100a1919061071c565b60405180910390f35b6100c460048036038101906100bf9190610737565b610276565b005b6100ce610405565b6040516100db9190610785565b60405180910390f35b6100fe60048036038101906100f991906107a0565b610429565b005b7f000000000000000000000000000000000000000000000000000000000000000081565b6000808587610133919061080f565b90508773ffffffffffffffffffffffffffffffffffffffff1663095ea7b373c532a74256d3db42d0bf7a0acf5f48da19818132896040518363ffffffff1660e01b8152600401610184929190610883565b6020604051808303816000875af11580156101a3573d6000803e3d6000fd5b505050506040513d601f19601f820116820180604052508101906101c791906108d8565b508773ffffffffffffffffffffffffffffffffffffffff1663095ea7b37f0000000000000000000000000000000000000000000000000000000000000000836040518363ffffffff1660e01b8152600401610223929190610883565b6020604051808303816000875af1158015610242573d6000803e3d6000fd5b505050506040513d601f19601f8201168201806040525081019061026691906108d8565b5060019150509695505050505050565b60008054906101000a900473ffffffffffffffffffffffffffffffffffffffff1673ffffffffffffffffffffffffffffffffffffffff163373ffffffffffffffffffffffffffffffffffffffff1614610304576040517f08c379a00000000000000000000000000000000000000000000000000000000081526004016102fb90610962565b60405180910390fd5b60008190508073ffffffffffffffffffffffffffffffffffffffff1663a9059cbb338373ffffffffffffffffffffffffffffffffffffffff166370a08231306040518263ffffffff1660e01b815260040161035f9190610982565b602060405180830381865afa15801561037c573d6000803e3d6000fd5b505050506040513d601f19601f820116820180604052508101906103a091906109b2565b6040518363ffffffff1660e01b81526004016103bd929190610883565b6020604051808303816000875af11580156103dc573d6000803e3d6000fd5b505050506040513d601f19601f8201168201806040525081019061040091906108d8565b505050565b7f000000000000000000000000000000000000000000000000000000000000000081565b600030905060008390506000839050600060405180602001604052806000815250905060007f000000000000000000000000000000000000000000000000000000000000000073ffffffffffffffffffffffffffffffffffffffff166342b0b77c86868686866040518663ffffffff1660e01b81526004016104af959493929190610a95565b600060405180830381600087803b1580156104c957600080fd5b505af11580156104dd573d6000803e3d6000fd5b5050505050505050505050565b600073ffffffffffffffffffffffffffffffffffffffff82169050919050565b6000819050919050565b600061052f61052a610525846104ea565b61050a565b6104ea565b9050919050565b600061054182610514565b9050919050565b600061055382610536565b9050919050565b61056381610548565b82525050565b600060208201905061057e600083018461055a565b92915050565b600080fd5b600080fd5b6000610599826104ea565b9050919050565b6105a98161058e565b81146105b457600080fd5b50565b6000813590506105c6816105a0565b92915050565b6000819050919050565b6105df816105cc565b81146105ea57600080fd5b50565b6000813590506105fc816105d6565b92915050565b600080fd5b600080fd5b600080fd5b60008083601f84011261062757610626610602565b5b8235905067ffffffffffffffff81111561064457610643610607565b5b6020830191508360018202830111156106605761065f61060c565b5b9250929050565b60008060008060008060a0878903121561068457610683610584565b5b600061069289828a016105b7565b96505060206106a389828a016105ed565b95505060406106b489828a016105ed565b94505060606106c589828a016105b7565b935050608087013567ffffffffffffffff8111156106e6576106e5610589565b5b6106f289828a01610611565b92509250509295509295509295565b60008115159050919050565b61071681610701565b82525050565b6000602082019050610731600083018461070d565b92915050565b60006020828403121561074d5761074c610584565b5b600061075b848285016105b7565b91505092915050565b600061076f82610536565b9050919050565b61077f81610764565b82525050565b600060208201905061079a6000830184610776565b92915050565b600080604083850312156107b7576107b6610584565b5b60006107c5858286016105b7565b92505060206107d6858286016105ed565b9150509250929050565b7f4e487b7100000000000000000000000000000000000000000000000000000000600052601160045260246000fd5b600061081a826105cc565b9150610825836105cc565b9250827fffffffffffffffffffffffffffffffffffffffffffffffffffffffffffffffff0382111561085a576108596107e0565b5b828201905092915050565b61086e8161058e565b82525050565b61087d816105cc565b82525050565b60006040820190506108986000830185610865565b6108a56020830184610874565b9392505050565b6108b581610701565b81146108c057600080fd5b50565b6000815190506108d2816108ac565b92915050565b6000602082840312156108ee576108ed610584565b5b60006108fc848285016108c3565b91505092915050565b600082825260208201905092915050565b7f4f6e6c79204f776e657200000000000000000000000000000000000000000000600082015250565b600061094c600a83610905565b915061095782610916565b602082019050919050565b6000602082019050818103600083015261097b8161093f565b9050919050565b60006020820190506109976000830184610865565b92915050565b6000815190506109ac816105d6565b92915050565b6000602082840312156109c8576109c7610584565b5b60006109d68482850161099d565b91505092915050565b600081519050919050565b600082825260208201905092915050565b60005b83811015610a195780820151818401526020810190506109fe565b83811115610a28576000848401525b50505050565b6000601f19601f8301169050919050565b6000610a4a826109df565b610a5481856109ea565b9350610a648185602086016109fb565b610a6d81610a2e565b840191505092915050565b600061ffff82169050919050565b610a8f81610a78565b82525050565b600060a082019050610aaa6000830188610865565b610ab76020830187610865565b610ac46040830186610874565b8181036060830152610ad68185610a3f565b9050610ae56080830184610a86565b969550505050505056fea26469706673582212209fa6bd7684028f43ca68d60ed3bcb4cc3738cfb10217872d91a54587545ba25564736f6c634300080a0033",
  "linkReferences": {},
  "deployedLinkReferences": {}
}